{
  "_format": "hh-sol-artifact-1",
  "contractName": "DepositContract",
  "sourceName": "contracts/Deposit.sol",
  "abi": [
    {
      "anonymous": false,
      "inputs": [
        {
          "indexed": true,
          "internalType": "address",
          "name": "user",
          "type": "address"
        },
        {
          "indexed": false,
          "internalType": "uint256",
          "name": "amount",
          "type": "uint256"
        }
      ],
      "name": "Deposited",
      "type": "event"
    },
    {
      "anonymous": false,
      "inputs": [
        {
          "indexed": true,
          "internalType": "address",
          "name": "user",
          "type": "address"
        },
        {
          "indexed": false,
          "internalType": "uint256",
          "name": "amount",
          "type": "uint256"
        }
      ],
      "name": "Withdrawn",
      "type": "event"
    },
    {
      "inputs": [
        {
          "internalType": "address",
          "name": "",
          "type": "address"
        }
      ],
      "name": "balances",
      "outputs": [
        {
          "internalType": "uint256",
          "name": "",
          "type": "uint256"
        }
      ],
      "stateMutability": "view",
      "type": "function"
    },
    {
      "inputs": [],
      "name": "getContractBalance",
      "outputs": [
        {
          "internalType": "uint256",
          "name": "",
          "type": "uint256"
        }
      ],
      "stateMutability": "view",
      "type": "function"
    },
    {
      "inputs": [
        {
          "internalType": "uint256",
          "name": "_amount",
          "type": "uint256"
        }
      ],
      "name": "withdraw",
      "outputs": [],
      "stateMutability": "nonpayable",
      "type": "function"
    },
    {
      "stateMutability": "payable",
      "type": "receive"
    }
  ],
  "bytecode": "0x608060405234801561001057600080fd5b5061061c806100206000396000f3fe6080604052600436106100385760003560e01c806327e235e31461012a5780632e1a7d4d146101675780636f9fb98a1461019057610125565b366101255760003411610080576040517f08c379a0000000000000000000000000000000000000000000000000000000008152600401610077906103a6565b60405180910390fd5b346000803373ffffffffffffffffffffffffffffffffffffffff1673ffffffffffffffffffffffffffffffffffffffff16815260200190815260200160002060008282546100ce91906103ff565b925050819055503373ffffffffffffffffffffffffffffffffffffffff167f2da466a7b24304f47e87fa2e1e5a81b9831ce54fec19055ce277ca2f39ba42c43460405161011b9190610442565b60405180910390a2005b600080fd5b34801561013657600080fd5b50610151600480360381019061014c91906104c0565b6101bb565b60405161015e9190610442565b60405180910390f35b34801561017357600080fd5b5061018e60048036038101906101899190610519565b6101d3565b005b34801561019c57600080fd5b506101a5610341565b6040516101b29190610442565b60405180910390f35b60006020528060005260406000206000915090505481565b806000803373ffffffffffffffffffffffffffffffffffffffff1673ffffffffffffffffffffffffffffffffffffffff168152602001908152602001600020541015610254576040517f08c379a000000000000000000000000000000000000000000000000000000000815260040161024b90610592565b60405180910390fd5b806000803373ffffffffffffffffffffffffffffffffffffffff1673ffffffffffffffffffffffffffffffffffffffff16815260200190815260200160002060008282546102a291906105b2565b925050819055503373ffffffffffffffffffffffffffffffffffffffff166108fc829081150290604051600060405180830381858888f193505050501580156102ef573d6000803e3d6000fd5b503373ffffffffffffffffffffffffffffffffffffffff167f7084f5476618d8e60b11ef0d7d3f06914655adb8793e28ff7f018d4c76d505d5826040516103369190610442565b60405180910390a250565b600047905090565b600082825260208201905092915050565b7f4465706f736974206d7573742062652067726561746572207468616e20300000600082015250565b6000610390601e83610349565b915061039b8261035a565b602082019050919050565b600060208201905081810360008301526103bf81610383565b9050919050565b6000819050919050565b7f4e487b7100000000000000000000000000000000000000000000000000000000600052601160045260246000fd5b600061040a826103c6565b9150610415836103c6565b925082820190508082111561042d5761042c6103d0565b5b92915050565b61043c816103c6565b82525050565b60006020820190506104576000830184610433565b92915050565b600080fd5b600073ffffffffffffffffffffffffffffffffffffffff82169050919050565b600061048d82610462565b9050919050565b61049d81610482565b81146104a857600080fd5b50565b6000813590506104ba81610494565b92915050565b6000602082840312156104d6576104d561045d565b5b60006104e4848285016104ab565b91505092915050565b6104f6816103c6565b811461050157600080fd5b50565b600081359050610513816104ed565b92915050565b60006020828403121561052f5761052e61045d565b5b600061053d84828501610504565b91505092915050565b7f496e73756666696369656e742062616c616e636520746f207769746864726177600082015250565b600061057c602083610349565b915061058782610546565b602082019050919050565b600060208201905081810360008301526105ab8161056f565b9050919050565b60006105bd826103c6565b91506105c8836103c6565b92508282039050818111156105e0576105df6103d0565b5b9291505056fea2646970667358221220f2247c955f7643b1ccd109c6ddbf8ef2fa742668dd990d5d8a827315480d07b164736f6c63430008130033",
  "linkReferences": {},
  "deployedLinkReferences": {}
}